:100000000C9472000C947E000C947E000C947E0084
:100010000C947E000C947E000C947E000C947E0068
:100020000C947E000C947E000C947E000C947E0058
:100030000C947E000C947E000C947E000C947E0048
:100040000C947E000C947E000C947E000C947E0038
:100050000C947E000C947E000C947E000C947E0028
:100060000C947E000C947E000C947E000C947E0018
:100070000C947E000C947E000C947E000C947E0008
:100080000C947E000C947E000C947E000C947E00F8
:100090000C947E000C947E000C947E000C947E00E8
:1000A0000C947E000C947E000C947E000C947E00D8
:1000B0000C947E000C947E000C947E000C947E00C8
:1000C0000C947E000C947E000C947E000C947E00B8
:1000D0000C947E000C947E000C947E000C947E00A8
:1000E0000C947E0011241FBECFEFD1E2DEBFCDBF46
:1000F00000E00CBF0E9480000C94CD000C94000026
:100100003A9A3B9A3C9A3D9A0E94C2000E94BB00D8
:10011000863421F4429A43984498459A0E94BB0041
:10012000823421F44298439A449A45980E94BB0035
:100130008C3489F4429A439A449A45982FEF8BE77E
:1001400092E9215080409040E1F700C00000429ABF
:10015000439A449A459A0E94BB008235B9F6429868
:10016000439A449A459AD2CF9091C00095FFFCCF14
:100170008093C60008958091C00087FFFCCF8091D6
:10018000C60008951092C50087E68093C400E1EC94
:0E019000F0E08081886180830895F894FFCFAD
:00000001FF
